:040000000DEF00F010
:04000800FDEF02F016
:10001800FF0028EF05F08AEC04F0D9EF02F039046C
:100028003A10D8A41AEF00F01CEF00F0D9EF02F054
:10003800420E3F1807E1520E4018D8A426EF00F0F0
:1000480028EF00F032EF00F0000E386E010E376E28
:10005800000E3A6E000E396ED9EF02F0420E3F18CC
:1000680007E1570E4018D8A43CEF00F03EEF00F02F
:1000780048EF00F0000E386E020E376E000E3A6E32
:10008800000E396ED9EF02F0530E3F1807E1520EF9
:100098004018D8A452EF00F054EF00F05EEF00F0E3
:1000A800000E386E030E376E000E3A6E000E396E73
:1000B800D9EF02F0530E3F1807E1570E4018D8A4A5
:1000C80068EF00F06AEF00F074EF00F0000E386E91
:1000D800040E376E000E3A6E000E396ED9EF02F03C
:1000E800450E3D01EA6F520EEA6F000E3A6E000EA1
:1000F800396ED9EF02F0D9EF02F03D01738FA00EEF
:100108006B6F020E6C6F5D8B78AB8DEF00F08FEF2D
:1001180000F088EF00F02E506B6F78AB96EF00F090
:1001280098EF00F091EF00F06000B7F06BFD78AB4E
:10013800A0EF00F0A2EF00F09BEF00F0738D74BB0E
:10014800A8EF00F0AAEF00F0D0EF00F0000E426E2A
:10015800010E416EB6EF00F0010E2126000E22229C
:100168002322242224BEC4EF00F02450231022109E
:1001780009E1060E215CD8A0C4EF00F0C6EF00F03C
:10018800B0EF00F0000E216E000E226E000E236EFE
:10019800000E246ED9EF02F0000E426E030E416E7F
:1001A800D9EF02F0A10E3D016B6F010E6C6F5D8BF4
:1001B800739D78ABE2EF00F0E4EF00F0DDEF00F0C4
:1001C800749D78A1EAEF00F0ECEF00F0E5EF00F0A5
:1001D8006F00A8F529F02A6A000E426E020E416EE1
:1001E800D9EF02F06000A7F0EAFD000E326E000EB3
:1001F800316E000E386E000E376E000E406E000E27
:100208003F6E000E426E000E416ED9EF02F0450EB1
:100218003D01EA6F520EEA6F000E326E000E316E2B
:10022800000E386E000E376E000E406E000E3F6EE8
:10023800000E426E000E416ED9EF02F041C045F04B
:1002480042C046F04650000AD8B42DEF01F07FEFC7
:1002580000F04550000AD8B481EF00F0010AD8B484
:10026800D6EF00F0030AD8B4F6EF00F0010AD8B4CC
:100278000BEF01F07FEF00F03D01738F030E6C6F01
:100288005D8BA00E6B6F78AB4CEF01F04EEF01F079
:1002980047EF01F02E506B6F78AB55EF01F057EF39
:1002A80001F050EF01F06000B7F06BFD78AB5FEF45
:1002B80001F061EF01F05AEF01F06000AFF06BFD63
:1002C80078AB69EF01F06BEF01F064EF01F074BBFC
:1002D80070EF01F072EF01F0F0EF00F0000E426EE7
:1002E800010E416ED9EF02F04F0E3D01EA6F4B0E41
:1002F800EA6F000E326E000E316E000E386E000E80
:10030800376E000E406E000E3F6E000E426E000EFD
:10031800416ED9EF02F041C045F042C046F0465068
:10032800000AD8B49AEF01F07FEF00F04550000AB8
:10033800D8B440EF01F0010AD8B478EF01F0030A0D
:10034800D8B40BEF01F07FEF00F03D01738FA00EE2
:100358006B6F020E6C6F5D8B78ABB5EF01F0B7EF8A
:1003680001F0B0EF01F02E506B6F78ABBEEF01F0EB
:10037800C0EF01F0B9EF01F06000B7F06BFD78ABAA
:10038800C8EF01F0CAEF01F0C3EF01F0738D74BB41
:10039800D0EF01F0D2EF01F0D0EF00F0000E426E86
:1003A800010E416EDEEF01F0010E2126000E222221
:1003B8002322242224BEECEF01F024502310221023
:1003C80009E1060E215CD8A0ECEF01F0EEEF01F098
:1003D800D8EF01F0C6EF00F0A10E3D016B6F3D288C
:1003E8006C6F5D8B739D78ABFCEF01F0FEEF01F055
:1003F800F7EF01F0000E3C6E000E3B6E11EF02F0BD
:10040800749D78A10AEF02F00CEF02F005EF02F0FC
:100418006F00ABF5EAFD3B4A3C2A3B503D5C3E5041
:10042800800A456E3C50800A4558D8B01EEF02F04D
:1004380020EF02F004EF02F0F0EF00F041C045F0C9
:1004480042C046F04650000AD8B42DEF02F07FEFC4
:1004580000F04550000AD8B4A9EF01F0010AD8B459
:10046800F0EF01F0030AD8B4F9EF00F0010AD8B4AC
:100478000BEF01F07FEF00F03D01738F120E6C6FF0
:100488005D8BA00E6B6F78AB4CEF02F04EEF02F075
:1004980047EF02F02D503B242F6E2E503C20306E3B
:1004A80030506B6F78AB5BEF02F05DEF02F056EF08
:1004B80002F06000BFF06BFD78AB65EF02F067EF0C
:1004C80002F060EF02F0000E3C6E000E3B6E3CBE88
:1004D80077EF02F03C5009E1100E3B5CD8A077EFB3
:1004E80002F079EF02F07BEF02F072EF01F03D01CC
:1004F800739DD8903B34D96E3C34DA6E010ED92600
:10050800000EDA22DF506B6F78AB8DEF02F08FEFC1
:1005180002F088EF02F0738D0E0E3B183C10D8A441
:1005280098EF02F09AEF02F0A3EF02F0739DA3EFA9
:1005380002F0010E2126000E22222322242224BEAC
:10054800B1EF02F024502310221009E1060E215CBD
:10055800D8A0B1EF02F0B3EF02F09DEF02F0000E69
:10056800216E000E226E000E236E000E246E3B4A92
:100578003C2A6BEF02F041C045F042C046F04650BD
:10058800000AD8B4CAEF02F07FEF00F04550000A25
:10059800D8B440EF02F0010AD8B478EF01F0030AAA
:1005A800D8B40BEF01F07FEF00F031C045F032C056
:1005B80046F04650000AD8B4E4EF02F0D9EF02F052
:1005C8004550000AD8B413EF00F0010AD8B422EF5E
:1005D80001F0030AD8B48FEF01F0010AD8B422EF72
:1005E80002F0070AD8B4BFEF02F0D9EF02F00DEF1E
:1005F80000F0390193A703EF03F005EF03F089EF4B
:1006080004F0A3A70AEF03F00CEF03F089EF04F05E
:10061800A39767EF04F035503610D8A416EF03F00F
:1006280018EF03F020EF03F03D01E851406E3F6AF8
:10063800354A362A89EF04F035043610D8A427EF56
:1006480003F029EF03F089EF04F03D01E8513F245E
:100658003F6E000E4020406E000E366E000E356E66
:10066800000E3A6E010E396E89EF04F033503410E3
:10067800D8A441EF03F043EF03F04BEF03F03D0143
:10068800E8512E6E2D6A334A342A5DEF03F03304A5
:100698003410D8A452EF03F054EF03F05DEF03F0E9
:1006A8003D01E8512D242D6E000E2E202E6E47EFB1
:1006B80003F0020E33183410D8A465EF03F067EF87
:1006C80003F089EF04F0000E346E000E336E000E56
:1006D800326E010E316E89EF04F033503410D8A415
:1006E80078EF03F07AEF03F082EF03F03D01E85171
:1006F8002E6E2D6A334A342AA4EF03F033043410E3
:10070800D8A489EF03F08BEF03F094EF03F03D01D9
:10071800E8512D242D6E000E2E202E6E7EEF03F054
:10072800020E33183410D8A49CEF03F09EEF03F0A8
:10073800A4EF03F06F00A0F72BF02C6A7EEF03F014
:10074800030E33183410D8A4ACEF03F0AEEF03F067
:1007580089EF04F0000E346E000E336E000E326E18
:10076800020E316E89EF04F033503410D8A4BFEF75
:1007780003F0C1EF03F0C9EF03F03D01E8512E6E1D
:100788002D6A334A342AEBEF03F033043410D8A42B
:10079800D0EF03F0D2EF03F0DBEF03F03D01E851B7
:1007A8002D242D6E000E2E202E6EC5EF03F0020EA6
:1007B80033183410D8A4E3EF03F0E5EF03F0EBEFC0
:1007C80003F06F00A0F73DF03E6AC5EF03F0030E9B
:1007D80033183410D8A4F3EF03F0F5EF03F089EFE2
:1007E80004F0000E346E000E336E000E326E030EEF
:1007F800316E89EF04F033503410D8A406EF04F0BA
:1008080008EF04F010EF04F03D01E8512E6E2D6A58
:10081800334A342A53EF04F033043410D8A417EFC2
:1008280004F019EF04F022EF04F03D01E8512D2403
:100838002D6E000E2E202E6E0CEF04F0020E3318D3
:100848003410D8A42AEF04F02CEF04F053EF04F08E
:100858003D01E851436E446AD8903B34D96E3C342C
:10086800DA6E010ED926000EDA2260000FF1DEFFE3
:10087800600013F1DDFF3B4A3C2A100E3B183C1088
:10088800D8A449EF04F04BEF04F053EF04F0334AD7
:10089800342A000E3C6E000E3B6E53EF04F0030E3C
:1008A80033183410D8A45BEF04F05DEF04F089EF3F
:1008B80004F0000E346E000E336E000E326E040E1D
:1008C800316E89EF04F037C043F038C044F044502B
:1008D800000AD8B472EF04F089EF04F04350000A1C
:1008E800D8B40FEF03F0010AD8B43AEF03F0030AC3
:1008F800D8B471EF03F0010AD8B4B8EF03F0070ACF
:10090800D8B4FFEF03F089EF04F01100600E39014D
:10091800D96F000EDB6F000EDD6F030EDF6F000E68
:10092800DE6F000EBE6E000EBD6E000EBA6E000EBB
:10093800BB6E000EBC6E060EC66E030EC26EE90ECE
:10094800C36E800EC46EC00EC56EC00E3A01706FC5
:10095800070E606FE90E506F060E806F030E406F32
:10096800000E716F000E816F000E516F000E416F07
:10097800000E616F000E5A6F000E5B6F000E6A6FFB
:10098800000E6B6F000E7A6F000E7B6F000E826F89
:10099800000E426F000E526F000E626F000E726FF3
:1009A8004369536963697369070E836F44695469BE
:1009B800646974690F0E846F800ED26E000E39015F
:1009C800916F000E926F480E936F000E946F140E85
:1009D8003A01E26F210E136F220E146F130E166F79
:1009E800170EE56F000E3D01EC6F000EED6F000E67
:1009F800EE6F000EEF6F000EF06F000EF16FB00E8D
:100A0800F26F800EF36F000EF46F110EF56F000E8B
:100A1800F66F000EF76F000EF86F000EF96F000EFC
:100A2800FA6F39019387040E3D01736FC00E746F1E
:100A3800300E756F030E7B6F000E796F000E7A6FA4
:100A4800000E766F6C69120000EE01F0420EEE6A3D
:100A5800E806FDE1080ED56E000ED66E000ED76EC4
:060A680000010FEF00F099
:020000040020DA
:10000000FF0FFF0FFF0FFF0FFF0FFF0FFF0FFF0F80
:020000040030CA
:0A000000ECFFF7FF9FFFFFFFFFFF7B
:00000001FF
